:03000000020006F5
:06005F0075080002000319
:030003000200995F
:2000650085829910990280FB22AD82AE83AFF08D828E838FF0120124FC60188C820DBD0072
:20008500010EC007C006C005120065D005D006D00780DC227587807598507589217588008E
:2000A500758DFAD28ED2AFC29975992E90014475F08012006EC2987509003098FD859909C9
:2000C500C298850982120065740DB50902800C742EB509028005740AB5093375820D120001
:2000E5006575820A120065E508240AF8760075080090015175F08012006E90000A75F04092
:1F01050012006E90016475F08012006E80ACE508240AF8A60974F52508409F0508809B76
:2001440048656C6C6F20576F726C640A00596F7520747970656420696E20746869735B00C8
:030164005D0A0031
:06003500E478FFF6D8FD9F
:200013007900E94400601B7A00900167780175A000E493F2A308B8000205A0D9F4DAF2752B
:02003300A0FF2C
:20003B007800E84400600A790175A000E4F309D8FC7800E84400600C7900900001E4F0A3C3
:04005B00D8FCD9FAFA
:0D000600758115120140E5826003020003C0
:1C01240020F71430F6148883A88220F507E6A88375830022E280F7E49322E022EA
:0401400075820022A2
:00000001FF
